{
  "contractName": "casino",
  "abi": [
    {
      "constant": true,
      "inputs": [],
      "name": "numberOfBets",
      "outputs": [
        {
          "name": "",
          "type": "uint256"
        }
      ],
      "payable": false,
      "stateMutability": "view",
      "type": "function"
    },
    {
      "constant": true,
      "inputs": [
        {
          "name": "",
          "type": "address"
        }
      ],
      "name": "playerInfo",
      "outputs": [
        {
          "name": "amountBet",
          "type": "uint256"
        },
        {
          "name": "numberSelected",
          "type": "uint256"
        }
      ],
      "payable": false,
      "stateMutability": "view",
      "type": "function"
    },
    {
      "constant": true,
      "inputs": [],
      "name": "owner",
      "outputs": [
        {
          "name": "",
          "type": "address"
        }
      ],
      "payable": false,
      "stateMutability": "view",
      "type": "function"
    },
    {
      "constant": true,
      "inputs": [],
      "name": "minimumBet",
      "outputs": [
        {
          "name": "",
          "type": "uint256"
        }
      ],
      "payable": false,
      "stateMutability": "view",
      "type": "function"
    },
    {
      "constant": true,
      "inputs": [],
      "name": "maxAmountOfBets",
      "outputs": [
        {
          "name": "",
          "type": "uint256"
        }
      ],
      "payable": false,
      "stateMutability": "view",
      "type": "function"
    },
    {
      "constant": true,
      "inputs": [
        {
          "name": "",
          "type": "uint256"
        }
      ],
      "name": "players",
      "outputs": [
        {
          "name": "",
          "type": "address"
        }
      ],
      "payable": false,
      "stateMutability": "view",
      "type": "function"
    },
    {
      "constant": true,
      "inputs": [],
      "name": "totalBet",
      "outputs": [
        {
          "name": "",
          "type": "uint256"
        }
      ],
      "payable": false,
      "stateMutability": "view",
      "type": "function"
    },
    {
      "inputs": [
        {
          "name": "_minimumBet",
          "type": "uint256"
        }
      ],
      "payable": false,
      "stateMutability": "nonpayable",
      "type": "constructor"
    },
    {
      "payable": true,
      "stateMutability": "payable",
      "type": "fallback"
    },
    {
      "constant": true,
      "inputs": [
        {
          "name": "player",
          "type": "address"
        }
      ],
      "name": "checkPlayerExists",
      "outputs": [
        {
          "name": "",
          "type": "bool"
        }
      ],
      "payable": false,
      "stateMutability": "view",
      "type": "function"
    },
    {
      "constant": false,
      "inputs": [
        {
          "name": "_numberGenerated",
          "type": "uint256"
        }
      ],
      "name": "distributePrizes",
      "outputs": [],
      "payable": false,
      "stateMutability": "nonpayable",
      "type": "function"
    },
    {
      "constant": false,
      "inputs": [],
      "name": "generateNumberWinner",
      "outputs": [],
      "payable": false,
      "stateMutability": "nonpayable",
      "type": "function"
    },
    {
      "constant": false,
      "inputs": [
        {
          "name": "_numberSelected",
          "type": "uint256"
        }
      ],
      "name": "bet",
      "outputs": [],
      "payable": true,
      "stateMutability": "payable",
      "type": "function"
    },
    {
      "constant": false,
      "inputs": [],
      "name": "resetData",
      "outputs": [],
      "payable": false,
      "stateMutability": "nonpayable",
      "type": "function"
    },
    {
      "constant": false,
      "inputs": [],
      "name": "kill",
      "outputs": [],
      "payable": false,
      "stateMutability": "nonpayable",
      "type": "function"
    }
  ],
  "bytecode": "0x608060405267016345785d8a00006001556000600355600360045534801561002657600080fd5b50604051602080610a6383398101806040528101908080519060200190929190505050336000806101000a81548173ffffffffffffffffffffffffffffffffffffffff021916908373ffffffffffffffffffffffffffffffffffffffff16021790555060008114151561009b57806001819055505b506109b8806100ab6000396000f3006080604052600436106100c5576000357c0100000000000000000000000000000000000000000000000000000000900463ffffffff1680630a50e361146100c75780632ca8c6d3146100de5780634081d9161461010957806341c0e1b514610164578063478c4e0e1461017b5780634b114691146101925780636ca3fc3b146101f05780637365870b1461021d5780638da5cb5b1461023d578063c38a8afd14610294578063e08a96cd146102bf578063f71d96cb146102ea578063fe5e185314610357575b005b3480156100d357600080fd5b506100dc610382565b005b3480156100ea57600080fd5b506100f36103a2565b6040518082815260200191505060405180910390f35b34801561011557600080fd5b5061014a600480360381019080803573ffffffffffffffffffffffffffffffffffffffff1690602001909291905050506103a8565b604051808215151515815260200191505060405180910390f35b34801561017057600080fd5b5061017961044b565b005b34801561018757600080fd5b506101906104dc565b005b34801561019e57600080fd5b506101d3600480360381019080803573ffffffffffffffffffffffffffffffffffffffff1690602001909291905050506104fe565b604051808381526020018281526020019250505060405180910390f35b3480156101fc57600080fd5b5061021b60048036038101908080359060200190929190505050610522565b005b61023b60048036038101908080359060200190929190505050610730565b005b34801561024957600080fd5b506102526108a2565b604051808273ffffffffffffffffffffffffffffffffffffffff1673ffffffffffffffffffffffffffffffffffffffff16815260200191505060405180910390f35b3480156102a057600080fd5b506102a96108c7565b6040518082815260200191505060405180910390f35b3480156102cb57600080fd5b506102d46108cd565b6040518082815260200191505060405180910390f35b3480156102f657600080fd5b50610315600480360381019080803590602001909291905050506108d3565b604051808273ffffffffffffffffffffffffffffffffffffffff1673ffffffffffffffffffffffffffffffffffffffff16815260200191505060405180910390f35b34801561036357600080fd5b5061036c610911565b6040518082815260200191505060405180910390f35b60006001600a4381151561039257fe5b0601905061039f81610522565b50565b60035481565b600080600090505b600580549050811015610440578273ffffffffffffffffffffffffffffffffffffffff166005828154811015156103e357fe5b9060005260206000200160009054906101000a900473ffffffffffffffffffffffffffffffffffffffff1673ffffffffffffffffffffffffffffffffffffffff1614156104335760019150610445565b80806001019150506103b0565b600091505b50919050565b6000809054906101000a900473ffffffffffffffffffffffffffffffffffffffff1673ffffffffffffffffffffffffffffffffffffffff163373ffffffffffffffffffffffffffffffffffffffff1614156104da576000809054906101000a900473ffffffffffffffffffffffffffffffffffffffff1673ffffffffffffffffffffffffffffffffffffffff16ff5b565b60006005816104eb9190610917565b5060006002819055506000600381905550565b60066020528060005260406000206000915090508060000154908060010154905082565b61052a610943565b6000806000809250600091505b60058054905082101561065857846006600060058581548110151561055857fe5b9060005260206000200160009054906101000a900473ffffffffffffffffffffffffffffffffffffffff1673ffffffffffffffffffffffffffffffffffffffff1673ffffffffffffffffffffffffffffffffffffffff16815260200190815260200160002060010154141561064d576005828154811015156105d657fe5b9060005260206000200160009054906101000a900473ffffffffffffffffffffffffffffffffffffffff16848460648110151561060f57fe5b602002019073ffffffffffffffffffffffffffffffffffffffff16908173ffffffffffffffffffffffffffffffffffffffff16815250508260010192505b816001019150610537565b600090505b606481101561072157600073ffffffffffffffffffffffffffffffffffffffff16848260648110151561068c57fe5b602002015173ffffffffffffffffffffffffffffffffffffffff161415156107165783816064811015156106bc57fe5b602002015173ffffffffffffffffffffffffffffffffffffffff166108fc60646002548115156106e857fe5b049081150290604051600060405180830381858888f19350505050158015610714573d6000803e3d6000fd5b505b80600101905061065d565b6107296104dc565b5050505050565b610739336103a8565b15151561074557600080fd5b600181101580156107575750600a8111155b151561076257600080fd5b600154341015151561077357600080fd5b34600660003373ffffffffffffffffffffffffffffffffffffffff1673ffffffffffffffffffffffffffffffffffffffff1681526020019081526020016000206000018190555080600660003373ffffffffffffffffffffffffffffffffffffffff1673ffffffffffffffffffffffffffffffffffffffff1681526020019081526020016000206001018190555060036000815480929190600101919050555060053390806001815401808255809150509060018203906000526020600020016000909192909190916101000a81548173ffffffffffffffffffffffffffffffffffffffff021916908373ffffffffffffffffffffffffffffffffffffffff160217905550503460026000828254019250508190555060045460035410151561089f5761089e610382565b5b50565b6000809054906101000a900473ffffffffffffffffffffffffffffffffffffffff1681565b60015481565b60045481565b6005818154811015156108e257fe5b906000526020600020016000915054906101000a900473ffffffffffffffffffffffffffffffffffffffff1681565b60025481565b81548183558181111561093e5781836000526020600020918201910161093d9190610967565b5b505050565b610c8060405190810160405280606490602082028038833980820191505090505090565b61098991905b8082111561098557600081600090555060010161096d565b5090565b905600a165627a7a72305820c46662c6812dec01203e4ff1b1399c9215ebb1e4a91433cf37f64640449e46cb0029",
  "source": "pragma solidity ^0.4.24;\r\n\r\n//go to https://github.com/merlox/casino-ethereum to check out secure number generation\r\n\r\n/// @title Contract to bet Ether for a number and win randomly when the number of bets is met.\r\n/// @author Merunas Grincalaitis\r\n\r\ncontract casino {\r\n\r\n    //owner address\r\n    address public owner;\r\n\r\n    //minimum allowed bet\r\n    uint256 public minimumBet = 100 finney;\r\n\r\n    //total ether bet for a current game\r\n    uint256 public totalBet;\r\n\r\n    //total number of bets made by users\r\n    uint256 public numberOfBets = 0;\r\n\r\n    //MAX allowed bets to be made; to reduce gas consumption when distributing prize\r\n    uint256 public maxAmountOfBets = 3;\r\n\r\n    //array of addresses so we may iterate\r\n    address[] public players;\r\n\r\n    //struct defining player; amount of ether bet and which number the player is betting on\r\n    struct Player{\r\n        uint256 amountBet;\r\n        uint256 numberSelected;\r\n    }\r\n\r\n    //info associated with a particular address\r\n    mapping(address => Player) public playerInfo;\r\n\r\n    constructor(uint256 _minimumBet) public {\r\n        owner = msg.sender;\r\n\r\n        if(_minimumBet != 0 ) minimumBet = _minimumBet;\r\n    }\r\n\r\n    //Checks if an address is listed in the players array\r\n    function checkPlayerExists(address player) public view returns(bool){\r\n        for (uint256 i = 0; i < players.length; i++){\r\n            if (players[i] == player) return true;\r\n        }   \r\n        return false;\r\n    }\r\n\r\n    function distributePrizes(uint256 _numberGenerated) public {\r\n        address[100] memory winners; //temp array to store winner addresses\r\n        uint256 counter = 0; //counter variable for winner array\r\n        for (uint256 i = 0; i < players.length; ++i){\r\n            if (playerInfo[players[i]].numberSelected == _numberGenerated) {\r\n                winners[counter] = players[i];\r\n                ++counter; \r\n            }               \r\n        }\r\n        for (uint256 j = 0; j < winners.length; ++j){\r\n            if(winners[j] != address(0)) //check that address is not empty\r\n                winners[j].transfer(totalBet / winners.length);\r\n        }\r\n        \r\n        resetData();\r\n    }\r\n\r\n    //generate a random number between 1 and 10, inclusive \r\n    function generateNumberWinner() public {\r\n        //takes current block number, modulo it by 10, add 1\r\n        //ex current block is 128142 % 10 = 2 + 1 = 3\r\n        uint256 numberGenerated = block.number % 10 + 1; // not secure, easy to cheat\r\n        distributePrizes(numberGenerated);\r\n    }\r\n\r\n    function bet(uint256 _numberSelected) public payable {\r\n        require(!checkPlayerExists(msg.sender));\r\n        require(_numberSelected >= 1 && _numberSelected <= 10);\r\n        require(msg.value >= minimumBet);\r\n        playerInfo[msg.sender].amountBet = msg.value;\r\n        playerInfo[msg.sender].numberSelected = _numberSelected;\r\n        numberOfBets++;\r\n        players.push(msg.sender);\r\n        totalBet += msg.value;\r\n        if (numberOfBets >= maxAmountOfBets) generateNumberWinner();\r\n    }\r\n    \r\n    function resetData() public {\r\n        players.length = 0; // Delete all the players array\r\n        totalBet = 0;\r\n        numberOfBets = 0;\r\n    }\r\n    \r\n    /*Fallback function in case someone sends ether to the contract\r\n    so it doesn't get lost and to increase the treasury of this contract*/\r\n    function () public payable {}\r\n\r\n    function kill() public {\r\n        if (msg.sender == owner) selfdestruct(owner);\r\n    }\r\n    \r\n}",
  "sourcePath": "C:\\Users\\Waleed\\Documents\\ETH projects\\casino\\contracts\\casino.sol",
  "compiler": {
    "name": "solc",
    "version": "0.4.24+commit.e67f0147.Emscripten.clang"
  },
  "schemaVersion": "2.0.1",
  "updatedAt": "2018-12-04T07:10:44.250Z"
}