{
  "contractName": "casino",
  "abi": [
    {
      "constant": true,
      "inputs": [],
      "name": "numberOfBets",
      "outputs": [
        {
          "name": "",
          "type": "uint256"
        }
      ],
      "payable": false,
      "stateMutability": "view",
      "type": "function"
    },
    {
      "constant": true,
      "inputs": [
        {
          "name": "",
          "type": "address"
        }
      ],
      "name": "playerInfo",
      "outputs": [
        {
          "name": "amountBet",
          "type": "uint256"
        },
        {
          "name": "numberSelected",
          "type": "uint256"
        }
      ],
      "payable": false,
      "stateMutability": "view",
      "type": "function"
    },
    {
      "constant": true,
      "inputs": [],
      "name": "owner",
      "outputs": [
        {
          "name": "",
          "type": "address"
        }
      ],
      "payable": false,
      "stateMutability": "view",
      "type": "function"
    },
    {
      "constant": true,
      "inputs": [],
      "name": "minimumBet",
      "outputs": [
        {
          "name": "",
          "type": "uint256"
        }
      ],
      "payable": false,
      "stateMutability": "view",
      "type": "function"
    },
    {
      "constant": true,
      "inputs": [],
      "name": "maxAmountOfBets",
      "outputs": [
        {
          "name": "",
          "type": "uint256"
        }
      ],
      "payable": false,
      "stateMutability": "view",
      "type": "function"
    },
    {
      "constant": true,
      "inputs": [
        {
          "name": "",
          "type": "uint256"
        }
      ],
      "name": "players",
      "outputs": [
        {
          "name": "",
          "type": "address"
        }
      ],
      "payable": false,
      "stateMutability": "view",
      "type": "function"
    },
    {
      "constant": true,
      "inputs": [],
      "name": "totalBet",
      "outputs": [
        {
          "name": "",
          "type": "uint256"
        }
      ],
      "payable": false,
      "stateMutability": "view",
      "type": "function"
    },
    {
      "inputs": [
        {
          "name": "_minimumBet",
          "type": "uint256"
        }
      ],
      "payable": false,
      "stateMutability": "nonpayable",
      "type": "constructor"
    },
    {
      "payable": true,
      "stateMutability": "payable",
      "type": "fallback"
    },
    {
      "constant": true,
      "inputs": [
        {
          "name": "player",
          "type": "address"
        }
      ],
      "name": "checkPlayerExists",
      "outputs": [
        {
          "name": "",
          "type": "bool"
        }
      ],
      "payable": false,
      "stateMutability": "view",
      "type": "function"
    },
    {
      "constant": false,
      "inputs": [
        {
          "name": "_numberGenerated",
          "type": "uint256"
        }
      ],
      "name": "distributePrizes",
      "outputs": [],
      "payable": false,
      "stateMutability": "nonpayable",
      "type": "function"
    },
    {
      "constant": false,
      "inputs": [],
      "name": "generateNumberWinner",
      "outputs": [],
      "payable": false,
      "stateMutability": "nonpayable",
      "type": "function"
    },
    {
      "constant": false,
      "inputs": [
        {
          "name": "_numberSelected",
          "type": "uint256"
        }
      ],
      "name": "makeBet",
      "outputs": [],
      "payable": true,
      "stateMutability": "payable",
      "type": "function"
    },
    {
      "constant": false,
      "inputs": [],
      "name": "kill",
      "outputs": [],
      "payable": false,
      "stateMutability": "nonpayable",
      "type": "function"
    }
  ],
  "bytecode": "0x608060405267016345785d8a00006001556000600255606460045534801561002657600080fd5b506040516020806109bd83398101806040528101908080519060200190929190505050336000806101000a81548173ffffffffffffffffffffffffffffffffffffffff021916908373ffffffffffffffffffffffffffffffffffffffff16021790555060008111156100985760015490505b50610915806100a86000396000f3006080604052600436106100ba576000357c0100000000000000000000000000000000000000000000000000000000900463ffffffff1680630a50e361146100bc5780632ca8c6d3146100d35780634081d916146100fe57806341c0e1b5146101595780634b114691146101705780636ca3fc3b146101ce578063718cc769146101fb5780638da5cb5b1461021b578063c38a8afd14610272578063e08a96cd1461029d578063f71d96cb146102c8578063fe5e185314610335575b005b3480156100c857600080fd5b506100d1610360565b005b3480156100df57600080fd5b506100e8610380565b6040518082815260200191505060405180910390f35b34801561010a57600080fd5b5061013f600480360381019080803573ffffffffffffffffffffffffffffffffffffffff169060200190929190505050610386565b604051808215151515815260200191505060405180910390f35b34801561016557600080fd5b5061016e610421565b005b34801561017c57600080fd5b506101b1600480360381019080803573ffffffffffffffffffffffffffffffffffffffff1690602001909291905050506104b2565b604051808381526020018281526020019250505060405180910390f35b3480156101da57600080fd5b506101f9600480360381019080803590602001909291905050506104d6565b005b610219600480360381019080803590602001909291905050506106de565b005b34801561022757600080fd5b50610230610850565b604051808273ffffffffffffffffffffffffffffffffffffffff1673ffffffffffffffffffffffffffffffffffffffff16815260200191505060405180910390f35b34801561027e57600080fd5b50610287610875565b6040518082815260200191505060405180910390f35b3480156102a957600080fd5b506102b261087b565b6040518082815260200191505060405180910390f35b3480156102d457600080fd5b506102f360048036038101908080359060200190929190505050610881565b604051808273ffffffffffffffffffffffffffffffffffffffff1673ffffffffffffffffffffffffffffffffffffffff16815260200191505060405180910390f35b34801561034157600080fd5b5061034a6108bf565b6040518082815260200191505060405180910390f35b60006001600a4381151561037057fe5b0601905061037d816104d6565b50565b60035481565b600080600090506005805490508111151561041a578273ffffffffffffffffffffffffffffffffffffffff166005828154811015156103c157fe5b9060005260206000200160009054906101000a900473ffffffffffffffffffffffffffffffffffffffff1673ffffffffffffffffffffffffffffffffffffffff161415610411576001915061041b565b6000915061041b565b5b50919050565b6000809054906101000a900473ffffffffffffffffffffffffffffffffffffffff1673ffffffffffffffffffffffffffffffffffffffff163373ffffffffffffffffffffffffffffffffffffffff1614156104b0576000809054906101000a900473ffffffffffffffffffffffffffffffffffffffff1673ffffffffffffffffffffffffffffffffffffffff16ff5b565b60066020528060005260406000206000915090508060000154908060010154905082565b6104de6108c5565b6000806000809250600091505b6005805490508211151561060d57846006600060058581548110151561050d57fe5b9060005260206000200160009054906101000a900473ffffffffffffffffffffffffffffffffffffffff1673ffffffffffffffffffffffffffffffffffffffff1673ffffffffffffffffffffffffffffffffffffffff1681526020019081526020016000206001015414156106025760058281548110151561058b57fe5b9060005260206000200160009054906101000a900473ffffffffffffffffffffffffffffffffffffffff1684846064811015156105c457fe5b602002019073ffffffffffffffffffffffffffffffffffffffff16908173ffffffffffffffffffffffffffffffffffffffff16815250508260010192505b8160010191506104eb565b600090505b6064811115156106d757600073ffffffffffffffffffffffffffffffffffffffff16848260648110151561064257fe5b602002015173ffffffffffffffffffffffffffffffffffffffff161415156106cc57838160648110151561067257fe5b602002015173ffffffffffffffffffffffffffffffffffffffff166108fc606460025481151561069e57fe5b049081150290604051600060405180830381858888f193505050501580156106ca573d6000803e3d6000fd5b505b806001019050610612565b5050505050565b6106e733610386565b1515156106f357600080fd5b600181101580156107055750600a8111155b151561071057600080fd5b600154341015151561072157600080fd5b34600660003373ffffffffffffffffffffffffffffffffffffffff1673ffffffffffffffffffffffffffffffffffffffff1681526020019081526020016000206000018190555080600660003373ffffffffffffffffffffffffffffffffffffffff1673ffffffffffffffffffffffffffffffffffffffff1681526020019081526020016000206001018190555060036000815480929190600101919050555060053390806001815401808255809150509060018203906000526020600020016000909192909190916101000a81548173ffffffffffffffffffffffffffffffffffffffff021916908373ffffffffffffffffffffffffffffffffffffffff160217905550503460026000828254019250508190555060045460035410151561084d5761084c610360565b5b50565b6000809054906101000a900473ffffffffffffffffffffffffffffffffffffffff1681565b60015481565b60045481565b60058181548110151561089057fe5b906000526020600020016000915054906101000a900473ffffffffffffffffffffffffffffffffffffffff1681565b60025481565b610c80604051908101604052806064906020820280388339808201915050905050905600a165627a7a72305820573b41280ea4673eb288886219fa8e885d2c6892731931b54bb6d3b875e0cf600029",
  "source": "pragma solidity 0.4.24;\r\n\r\n//go to https://github.com/merlox/casino-ethereum to check out secure number generation\r\n\r\n/// @title Contract to bet Ether for a number and win randomly when the number of bets is met.\r\n/// @author Merunas Grincalaitis\r\n\r\ncontract casino {\r\n\r\n    //owner address\r\n    address public owner;\r\n\r\n    //minimum allowed bet\r\n    uint256 public minimumBet = 100 finney;\r\n\r\n    //total ether bet for a current game\r\n    uint256 public totalBet = 0;\r\n\r\n    //total number of bets made by users\r\n    uint256 public numberOfBets;\r\n\r\n    //MAX allowed bets to be made; to reduce gas consumption when distributing prize\r\n    uint256 public maxAmountOfBets = 100;\r\n\r\n    //array of addresses so we may iterate\r\n    address[] public players;\r\n\r\n    //struct defining player; amount of ether bet and which number the player is betting on\r\n    struct Player{\r\n        uint256 amountBet;\r\n        uint256 numberSelected;\r\n    }\r\n\r\n    //info associated with a particular address\r\n    mapping(address => Player) public playerInfo;\r\n\r\n    constructor (uint256 _minimumBet) public{\r\n        owner = msg.sender;\r\n\r\n        if (_minimumBet > 0)\r\n            _minimumBet = minimumBet;\r\n    }\r\n\r\n    //Checks if an address is listed in the players array\r\n    function checkPlayerExists(address player) public view returns(bool){\r\n        for (uint256 i = 0; i <= players.length; ++i){\r\n            if (players[i] == player) return true;\r\n            else\r\n                return false;\r\n        }        \r\n    }\r\n\r\n    function distributePrizes(uint256 _numberGenerated) public {\r\n        address[100] memory winners; //temp array to store winner addresses\r\n        uint256 counter = 0; //counter variable for winner array\r\n        for (uint256 i = 0; i <= players.length; ++i){\r\n            if (playerInfo[players[i]].numberSelected == _numberGenerated) {\r\n                winners[counter] = players[i];\r\n                ++counter; \r\n            }               \r\n        }\r\n        for (uint256 j = 0; j <= winners.length; ++j){\r\n            if(winners[j] != address(0)) //check that address is not empty\r\n                winners[j].transfer(totalBet / winners.length);\r\n        }\r\n    }\r\n\r\n    //generate a random number between 1 and 10, inclusive \r\n    function generateNumberWinner() public {\r\n        //takes current block number, modulo it by 10, add 1\r\n        //ex current block is 128142 % 10 = 2 + 1 = 3\r\n        uint256 numberGenerated = block.number % 10 + 1; // not secure, easy to cheat\r\n        distributePrizes(numberGenerated);\r\n    }\r\n\r\n    function makeBet(uint256 _numberSelected) public payable {\r\n        require(!checkPlayerExists(msg.sender));\r\n        require(_numberSelected >= 1 && _numberSelected <= 10);\r\n        require(msg.value >= minimumBet);\r\n        playerInfo[msg.sender].amountBet = msg.value;\r\n        playerInfo[msg.sender].numberSelected = _numberSelected;\r\n        numberOfBets++;\r\n        players.push(msg.sender);\r\n        totalBet += msg.value;\r\n        if (numberOfBets >= maxAmountOfBets) generateNumberWinner();\r\n    }\r\n\r\n    /*Fallback function in case someone sends ether to the contract\r\n    so it doesn't get lost and to increase the treasury of this contract*/\r\n    function () public payable {}\r\n\r\n    function kill() public {\r\n        if (msg.sender == owner) selfdestruct(owner);\r\n    }\r\n}",
  "sourcePath": "C:\\Users\\Waleed\\Documents\\ETH projects\\casino\\contracts\\casino.sol",
  "compiler": {
    "name": "solc",
    "version": "0.4.24+commit.e67f0147.Emscripten.clang"
  },
  "schemaVersion": "2.0.1",
  "updatedAt": "2018-11-15T19:11:44.268Z"
}